{
  "_format": "hh-sol-artifact-1",
  "contractName": "Movetivator",
  "sourceName": "contracts/Movetivator-API.sol",
  "abi": [
    {
      "inputs": [],
      "stateMutability": "nonpayable",
      "type": "constructor"
    },
    {
      "anonymous": false,
      "inputs": [
        {
          "indexed": true,
          "internalType": "bytes32",
          "name": "id",
          "type": "bytes32"
        }
      ],
      "name": "ChainlinkCancelled",
      "type": "event"
    },
    {
      "anonymous": false,
      "inputs": [
        {
          "indexed": true,
          "internalType": "bytes32",
          "name": "id",
          "type": "bytes32"
        }
      ],
      "name": "ChainlinkFulfilled",
      "type": "event"
    },
    {
      "anonymous": false,
      "inputs": [
        {
          "indexed": true,
          "internalType": "bytes32",
          "name": "id",
          "type": "bytes32"
        }
      ],
      "name": "ChainlinkRequested",
      "type": "event"
    },
    {
      "inputs": [],
      "name": "converPace",
      "outputs": [],
      "stateMutability": "nonpayable",
      "type": "function"
    },
    {
      "inputs": [],
      "name": "convertMinute",
      "outputs": [],
      "stateMutability": "nonpayable",
      "type": "function"
    },
    {
      "inputs": [],
      "name": "covertMile",
      "outputs": [],
      "stateMutability": "nonpayable",
      "type": "function"
    },
    {
      "inputs": [],
      "name": "distance",
      "outputs": [
        {
          "internalType": "uint256",
          "name": "",
          "type": "uint256"
        }
      ],
      "stateMutability": "view",
      "type": "function"
    },
    {
      "inputs": [
        {
          "internalType": "bytes32",
          "name": "_requestId",
          "type": "bytes32"
        },
        {
          "internalType": "uint256",
          "name": "_distance",
          "type": "uint256"
        }
      ],
      "name": "fulfillDistance",
      "outputs": [],
      "stateMutability": "nonpayable",
      "type": "function"
    },
    {
      "inputs": [
        {
          "internalType": "bytes32",
          "name": "_requestId",
          "type": "bytes32"
        },
        {
          "internalType": "uint256",
          "name": "_time",
          "type": "uint256"
        }
      ],
      "name": "fulfillTime",
      "outputs": [],
      "stateMutability": "nonpayable",
      "type": "function"
    },
    {
      "inputs": [],
      "name": "getDistance",
      "outputs": [
        {
          "internalType": "uint256",
          "name": "",
          "type": "uint256"
        }
      ],
      "stateMutability": "view",
      "type": "function"
    },
    {
      "inputs": [],
      "name": "getTime",
      "outputs": [
        {
          "internalType": "uint256",
          "name": "",
          "type": "uint256"
        }
      ],
      "stateMutability": "view",
      "type": "function"
    },
    {
      "inputs": [],
      "name": "pace",
      "outputs": [
        {
          "internalType": "uint256",
          "name": "",
          "type": "uint256"
        }
      ],
      "stateMutability": "view",
      "type": "function"
    },
    {
      "inputs": [],
      "name": "requestDistanceData",
      "outputs": [
        {
          "internalType": "bytes32",
          "name": "requestId",
          "type": "bytes32"
        }
      ],
      "stateMutability": "nonpayable",
      "type": "function"
    },
    {
      "inputs": [],
      "name": "requestTimeData",
      "outputs": [
        {
          "internalType": "bytes32",
          "name": "requestId",
          "type": "bytes32"
        }
      ],
      "stateMutability": "nonpayable",
      "type": "function"
    },
    {
      "inputs": [],
      "name": "time",
      "outputs": [
        {
          "internalType": "uint256",
          "name": "",
          "type": "uint256"
        }
      ],
      "stateMutability": "view",
      "type": "function"
    }
  ],
  "bytecode": "0x6080604052600160045534801561001557600080fd5b5061001e610079565b600880546001600160a01b03191673c57b33452b4f7bb189bb5afae9cc4aba1f7a4fd81790557f643532373064316333313139343164306230386265616432316665613737343760095567016345785d8a0000600a55610158565b61010673c89bd4e1632d3a43cb03aaad5262cbe4038bc5716001600160a01b03166338cc48316040518163ffffffff1660e01b815260040160206040518083038186803b1580156100c957600080fd5b505afa1580156100dd573d6000803e3d6000fd5b505050506040513d601f19601f82011682018060405250810190610101919061012a565b610108565b565b600280546001600160a01b0319166001600160a01b0392909216919091179055565b60006020828403121561013b578081fd5b81516001600160a01b0381168114610151578182fd5b9392505050565b610e98806101676000396000f3fe608060405234801561001057600080fd5b50600436106100b45760003560e01c806353acab2e1161007157806353acab2e1461010c578063557ed1ba14610114578063bbdf84511461011c578063e774041d1461012f578063e8b92f3a14610137578063eb362f1b1461013f576100b4565b80630e0e5f78146100b957806311ba9e49146100c357806316ada547146100d657806318f021d2146100f4578063274fa2b0146100fc5780634851375c14610104575b600080fd5b6100c1610147565b005b6100c16100d1366004610a87565b61015b565b6100de6101e6565b6040516100eb9190610bad565b60405180910390f35b6100de6101ec565b6100de6101f2565b6100de6101f8565b6100de6101fe565b6100de6102de565b6100c161012a366004610a87565b6102e4565b6100c1610366565b6100c161037b565b6100de610390565b603c6007546101569190610c59565b600d55565b60008281526005602052604090205482906001600160a01b0316331461019c5760405162461bcd60e51b815260040161019390610bf9565b60405180910390fd5b60008181526005602052604080822080546001600160a01b03191690555182917f7cc135e0cebb02c3480ae5d74d377283180a2601f8f644edf7987b009316c63a91a25060065550565b60075481565b60065490565b600b5481565b60065481565b6000806102156009543063bbdf845160e01b61044f565b90506102576040518060400160405280600381526020016219d95d60ea1b8152506040518060a00160405280606b8152602001610df8606b9139839190610476565b6102bd604051806040016040528060048152602001630e0c2e8d60e31b8152506040518060400160405280601a81526020017f616c6c5f72756e5f746f74616c732e6d6f76696e675f74696d65000000000000815250836104769092919063ffffffff16565b600854600a546102d8916001600160a01b0316908390610499565b91505090565b60075490565b60008281526005602052604090205482906001600160a01b0316331461031c5760405162461bcd60e51b815260040161019390610bf9565b60008181526005602052604080822080546001600160a01b03191690555182917f7cc135e0cebb02c3480ae5d74d377283180a2601f8f644edf7987b009316c63a91a25060075550565b600c54600d546103769190610c59565b600b55565b61064960065461038b9190610c59565b600c55565b6000806103a7600954306311ba9e4960e01b61044f565b90506103e96040518060400160405280600381526020016219d95d60ea1b8152506040518060a00160405280606b8152602001610df8606b9139839190610476565b6102bd604051806040016040528060048152602001630e0c2e8d60e31b8152506040518060400160405280601781526020017f616c6c5f72756e5f746f74616c732e64697374616e6365000000000000000000815250836104769092919063ffffffff16565b610457610a18565b61045f610a18565b61046b818686866104b8565b9150505b9392505050565b608083015161048590836104f5565b608083015161049490826104f5565b505050565b60006104b084848460016320214ca360e11b61050c565b949350505050565b6104c0610a18565b6104d085608001516101006106c7565b50509183526001600160a01b031660208301526001600160e01b031916604082015290565b6105028260038351610725565b61049482826107ff565b600030600454604051602001610523929190610af3565b60408051808303601f19018152918152815160209283012060045460608901526000818152600590935281832080546001600160a01b0319166001600160a01b038b16179055905190925082917fb5e6e01e79f91267dc17b4e6314d5d4d03593d2ceee0fbb452b750bd70ea5af991a2600082600080886000015189602001518a604001518b606001518a8d60800151600001516040516024016105ce989796959493929190610b15565b60408051601f198184030181529181526020820180516001600160e01b03166001600160e01b0319909416939093179092526002549151630200057560e51b81529092506001600160a01b0390911690634000aea090610636908a9089908690600401610b7d565b602060405180830381600087803b15801561065057600080fd5b505af1158015610664573d6000803e3d6000fd5b505050506040513d601f19601f820116820180604052508101906106889190610a67565b6106a45760405162461bcd60e51b815260040161019390610bb6565b6001600460008282546106b79190610c41565b9091555091979650505050505050565b6106cf610a4d565b6106da602083610db7565b15610702576106ea602083610db7565b6106f5906020610da0565b6106ff9083610c41565b91505b506020808301829052604080518085526000815283019091019052815b92915050565b60178111610746576107408360e0600585901b168317610819565b50610494565b60ff811161077057610763836018611fe0600586901b1617610819565b5061074083826001610831565b61ffff811161079b5761078e836019611fe0600586901b1617610819565b5061074083826002610831565b63ffffffff81116107c8576107bb83601a611fe0600586901b1617610819565b5061074083826004610831565b67ffffffffffffffff8111610494576107ec83601b611fe0600586901b1617610819565b506107f983826008610831565b50505050565b610807610a4d565b61046f8384600001515184855161084a565b610821610a4d565b61046f8384600001515184610927565b610839610a4d565b6104b0848560000151518585610976565b610852610a4d565b825182111561086057600080fd5b602085015161086f8386610c41565b11156108a2576108a2856108928760200151878661088d9190610c41565b6109ea565b61089d906002610d81565b610a01565b6000808651805187602083010193508088870111156108c15787860182525b505050602084015b6020841061090157805182526108e0602083610c41565b91506108ed602082610c41565b90506108fa602085610da0565b93506108c9565b51815160001960208690036101000a019081169019919091161790525083949350505050565b61092f610a4d565b8360200151831061094f5761094f848560200151600261089d9190610d81565b83518051602085830101848153508085141561096c576001810182525b5093949350505050565b61097e610a4d565b602085015161098d8584610c41565b11156109a1576109a1856108928685610c41565b600060016109b184610100610cb3565b6109bb9190610da0565b90508551838682010185831982511617815250805184870111156109df5783860181525b509495945050505050565b6000818311156109fb57508161071f565b50919050565b8151610a0d83836106c7565b506107f983826107ff565b6040805160a081018252600080825260208201819052918101829052606081019190915260808101610a48610a4d565b905290565b604051806040016040528060608152602001600081525090565b600060208284031215610a78578081fd5b8151801515811461046f578182fd5b60008060408385031215610a99578081fd5b50508035926020909101359150565b60008151808452815b81811015610acd57602081850181015186830182015201610ab1565b81811115610ade5782602083870101525b50601f01601f19169290920160200192915050565b60609290921b6bffffffffffffffffffffffff19168252601482015260340190565b6001600160a01b0389811682526020820189905260408201889052861660608201526001600160e01b03198516608082015260a0810184905260c0810183905261010060e08201819052600090610b6e83820185610aa8565b9b9a5050505050505050505050565b600060018060a01b038516825283602083015260606040830152610ba46060830184610aa8565b95945050505050565b90815260200190565b60208082526023908201527f756e61626c6520746f207472616e73666572416e6443616c6c20746f206f7261604082015262636c6560e81b606082015260800190565b60208082526028908201527f536f75726365206d75737420626520746865206f7261636c65206f6620746865604082015267081c995c5d595cdd60c21b606082015260800190565b60008219821115610c5457610c54610dcb565b500190565b600082610c6857610c68610de1565b500490565b80825b6001808611610c7f5750610caa565b818704821115610c9157610c91610dcb565b80861615610c9e57918102915b9490941c938002610c70565b94509492505050565b600061046f6000198484600082610ccc5750600161046f565b81610cd95750600061046f565b8160018114610cef5760028114610cf957610d26565b600191505061046f565b60ff841115610d0a57610d0a610dcb565b6001841b915084821115610d2057610d20610dcb565b5061046f565b5060208310610133831016604e8410600b8410161715610d59575081810a83811115610d5457610d54610dcb565b61046f565b610d668484846001610c6d565b808604821115610d7857610d78610dcb565b02949350505050565b6000816000190483118215151615610d9b57610d9b610dcb565b500290565b600082821015610db257610db2610dcb565b500390565b600082610dc657610dc6610de1565b500690565b634e487b7160e01b600052601160045260246000fd5b634e487b7160e01b600052601260045260246000fdfe68747470733a2f2f7777772e7374726176612e636f6d2f6170692f76332f6174686c657465732f34323333373637342f73746174733f6163636573735f746f6b656e3d32623334646663353066633435346164356630626431373733613663653234326163363561343935a2646970667358221220d96768819a01d4a0711110bc9ad47489ecf90fd2bc4d07165665f5012af4ade664736f6c63430008000033",
  "linkReferences": {},
  "deployedLinkReferences": {}
}