{
  "contracts/Movetivator-API.sol": {
    "Movetivator": {
      "abi": [
        {
          "inputs": [],
          "stateMutability": "nonpayable",
          "type": "constructor"
        },
        {
          "anonymous": false,
          "inputs": [
            {
              "indexed": true,
              "internalType": "bytes32",
              "name": "id",
              "type": "bytes32"
            }
          ],
          "name": "ChainlinkCancelled",
          "type": "event"
        },
        {
          "anonymous": false,
          "inputs": [
            {
              "indexed": true,
              "internalType": "bytes32",
              "name": "id",
              "type": "bytes32"
            }
          ],
          "name": "ChainlinkFulfilled",
          "type": "event"
        },
        {
          "anonymous": false,
          "inputs": [
            {
              "indexed": true,
              "internalType": "bytes32",
              "name": "id",
              "type": "bytes32"
            }
          ],
          "name": "ChainlinkRequested",
          "type": "event"
        },
        {
          "inputs": [],
          "name": "converPace",
          "outputs": [],
          "stateMutability": "nonpayable",
          "type": "function"
        },
        {
          "inputs": [],
          "name": "convertMinute",
          "outputs": [],
          "stateMutability": "nonpayable",
          "type": "function"
        },
        {
          "inputs": [],
          "name": "covertMile",
          "outputs": [],
          "stateMutability": "nonpayable",
          "type": "function"
        },
        {
          "inputs": [],
          "name": "distance",
          "outputs": [
            {
              "internalType": "uint256",
              "name": "",
              "type": "uint256"
            }
          ],
          "stateMutability": "view",
          "type": "function"
        },
        {
          "inputs": [
            {
              "internalType": "bytes32",
              "name": "_requestId",
              "type": "bytes32"
            },
            {
              "internalType": "uint256",
              "name": "_distance",
              "type": "uint256"
            }
          ],
          "name": "fulfillDistance",
          "outputs": [],
          "stateMutability": "nonpayable",
          "type": "function"
        },
        {
          "inputs": [
            {
              "internalType": "bytes32",
              "name": "_requestId",
              "type": "bytes32"
            },
            {
              "internalType": "uint256",
              "name": "_time",
              "type": "uint256"
            }
          ],
          "name": "fulfillTime",
          "outputs": [],
          "stateMutability": "nonpayable",
          "type": "function"
        },
        {
          "inputs": [],
          "name": "getDistance",
          "outputs": [
            {
              "internalType": "uint256",
              "name": "",
              "type": "uint256"
            }
          ],
          "stateMutability": "view",
          "type": "function"
        },
        {
          "inputs": [],
          "name": "getTime",
          "outputs": [
            {
              "internalType": "uint256",
              "name": "",
              "type": "uint256"
            }
          ],
          "stateMutability": "view",
          "type": "function"
        },
        {
          "inputs": [],
          "name": "pace",
          "outputs": [
            {
              "internalType": "uint256",
              "name": "",
              "type": "uint256"
            }
          ],
          "stateMutability": "view",
          "type": "function"
        },
        {
          "inputs": [],
          "name": "requestDistanceData",
          "outputs": [
            {
              "internalType": "bytes32",
              "name": "requestId",
              "type": "bytes32"
            }
          ],
          "stateMutability": "nonpayable",
          "type": "function"
        },
        {
          "inputs": [],
          "name": "requestTimeData",
          "outputs": [
            {
              "internalType": "bytes32",
              "name": "requestId",
              "type": "bytes32"
            }
          ],
          "stateMutability": "nonpayable",
          "type": "function"
        },
        {
          "inputs": [],
          "name": "time",
          "outputs": [
            {
              "internalType": "uint256",
              "name": "",
              "type": "uint256"
            }
          ],
          "stateMutability": "view",
          "type": "function"
        }
      ],
      "evm": {
        "bytecode": {
          "linkReferences": {},
          "object": "6080604052600160045534801561001557600080fd5b5061001e610079565b600880546001600160a01b03191673c57b33452b4f7bb189bb5afae9cc4aba1f7a4fd81790557f643532373064316333313139343164306230386265616432316665613737343760095567016345785d8a0000600a55610158565b61010673c89bd4e1632d3a43cb03aaad5262cbe4038bc5716001600160a01b03166338cc48316040518163ffffffff1660e01b815260040160206040518083038186803b1580156100c957600080fd5b505afa1580156100dd573d6000803e3d6000fd5b505050506040513d601f19601f82011682018060405250810190610101919061012a565b610108565b565b600280546001600160a01b0319166001600160a01b0392909216919091179055565b60006020828403121561013b578081fd5b81516001600160a01b0381168114610151578182fd5b9392505050565b610e98806101676000396000f3fe608060405234801561001057600080fd5b50600436106100b45760003560e01c806353acab2e1161007157806353acab2e1461010c578063557ed1ba14610114578063bbdf84511461011c578063e774041d1461012f578063e8b92f3a14610137578063eb362f1b1461013f576100b4565b80630e0e5f78146100b957806311ba9e49146100c357806316ada547146100d657806318f021d2146100f4578063274fa2b0146100fc5780634851375c14610104575b600080fd5b6100c1610147565b005b6100c16100d1366004610a87565b61015b565b6100de6101e6565b6040516100eb9190610bad565b60405180910390f35b6100de6101ec565b6100de6101f2565b6100de6101f8565b6100de6101fe565b6100de6102de565b6100c161012a366004610a87565b6102e4565b6100c1610366565b6100c161037b565b6100de610390565b603c6007546101569190610c59565b600d55565b60008281526005602052604090205482906001600160a01b0316331461019c5760405162461bcd60e51b815260040161019390610bf9565b60405180910390fd5b60008181526005602052604080822080546001600160a01b03191690555182917f7cc135e0cebb02c3480ae5d74d377283180a2601f8f644edf7987b009316c63a91a25060065550565b60075481565b60065490565b600b5481565b60065481565b6000806102156009543063bbdf845160e01b61044f565b90506102576040518060400160405280600381526020016219d95d60ea1b8152506040518060a00160405280606b8152602001610df8606b9139839190610476565b6102bd604051806040016040528060048152602001630e0c2e8d60e31b8152506040518060400160405280601a81526020017f616c6c5f72756e5f746f74616c732e6d6f76696e675f74696d65000000000000815250836104769092919063ffffffff16565b600854600a546102d8916001600160a01b0316908390610499565b91505090565b60075490565b60008281526005602052604090205482906001600160a01b0316331461031c5760405162461bcd60e51b815260040161019390610bf9565b60008181526005602052604080822080546001600160a01b03191690555182917f7cc135e0cebb02c3480ae5d74d377283180a2601f8f644edf7987b009316c63a91a25060075550565b600c54600d546103769190610c59565b600b55565b61064960065461038b9190610c59565b600c55565b6000806103a7600954306311ba9e4960e01b61044f565b90506103e96040518060400160405280600381526020016219d95d60ea1b8152506040518060a00160405280606b8152602001610df8606b9139839190610476565b6102bd604051806040016040528060048152602001630e0c2e8d60e31b8152506040518060400160405280601781526020017f616c6c5f72756e5f746f74616c732e64697374616e6365000000000000000000815250836104769092919063ffffffff16565b610457610a18565b61045f610a18565b61046b818686866104b8565b9150505b9392505050565b608083015161048590836104f5565b608083015161049490826104f5565b505050565b60006104b084848460016320214ca360e11b61050c565b949350505050565b6104c0610a18565b6104d085608001516101006106c7565b50509183526001600160a01b031660208301526001600160e01b031916604082015290565b6105028260038351610725565b61049482826107ff565b600030600454604051602001610523929190610af3565b60408051808303601f19018152918152815160209283012060045460608901526000818152600590935281832080546001600160a01b0319166001600160a01b038b16179055905190925082917fb5e6e01e79f91267dc17b4e6314d5d4d03593d2ceee0fbb452b750bd70ea5af991a2600082600080886000015189602001518a604001518b606001518a8d60800151600001516040516024016105ce989796959493929190610b15565b60408051601f198184030181529181526020820180516001600160e01b03166001600160e01b0319909416939093179092526002549151630200057560e51b81529092506001600160a01b0390911690634000aea090610636908a9089908690600401610b7d565b602060405180830381600087803b15801561065057600080fd5b505af1158015610664573d6000803e3d6000fd5b505050506040513d601f19601f820116820180604052508101906106889190610a67565b6106a45760405162461bcd60e51b815260040161019390610bb6565b6001600460008282546106b79190610c41565b9091555091979650505050505050565b6106cf610a4d565b6106da602083610db7565b15610702576106ea602083610db7565b6106f5906020610da0565b6106ff9083610c41565b91505b506020808301829052604080518085526000815283019091019052815b92915050565b60178111610746576107408360e0600585901b168317610819565b50610494565b60ff811161077057610763836018611fe0600586901b1617610819565b5061074083826001610831565b61ffff811161079b5761078e836019611fe0600586901b1617610819565b5061074083826002610831565b63ffffffff81116107c8576107bb83601a611fe0600586901b1617610819565b5061074083826004610831565b67ffffffffffffffff8111610494576107ec83601b611fe0600586901b1617610819565b506107f983826008610831565b50505050565b610807610a4d565b61046f8384600001515184855161084a565b610821610a4d565b61046f8384600001515184610927565b610839610a4d565b6104b0848560000151518585610976565b610852610a4d565b825182111561086057600080fd5b602085015161086f8386610c41565b11156108a2576108a2856108928760200151878661088d9190610c41565b6109ea565b61089d906002610d81565b610a01565b6000808651805187602083010193508088870111156108c15787860182525b505050602084015b6020841061090157805182526108e0602083610c41565b91506108ed602082610c41565b90506108fa602085610da0565b93506108c9565b51815160001960208690036101000a019081169019919091161790525083949350505050565b61092f610a4d565b8360200151831061094f5761094f848560200151600261089d9190610d81565b83518051602085830101848153508085141561096c576001810182525b5093949350505050565b61097e610a4d565b602085015161098d8584610c41565b11156109a1576109a1856108928685610c41565b600060016109b184610100610cb3565b6109bb9190610da0565b90508551838682010185831982511617815250805184870111156109df5783860181525b509495945050505050565b6000818311156109fb57508161071f565b50919050565b8151610a0d83836106c7565b506107f983826107ff565b6040805160a081018252600080825260208201819052918101829052606081019190915260808101610a48610a4d565b905290565b604051806040016040528060608152602001600081525090565b600060208284031215610a78578081fd5b8151801515811461046f578182fd5b60008060408385031215610a99578081fd5b50508035926020909101359150565b60008151808452815b81811015610acd57602081850181015186830182015201610ab1565b81811115610ade5782602083870101525b50601f01601f19169290920160200192915050565b60609290921b6bffffffffffffffffffffffff19168252601482015260340190565b6001600160a01b0389811682526020820189905260408201889052861660608201526001600160e01b03198516608082015260a0810184905260c0810183905261010060e08201819052600090610b6e83820185610aa8565b9b9a5050505050505050505050565b600060018060a01b038516825283602083015260606040830152610ba46060830184610aa8565b95945050505050565b90815260200190565b60208082526023908201527f756e61626c6520746f207472616e73666572416e6443616c6c20746f206f7261604082015262636c6560e81b606082015260800190565b60208082526028908201527f536f75726365206d75737420626520746865206f7261636c65206f6620746865604082015267081c995c5d595cdd60c21b606082015260800190565b60008219821115610c5457610c54610dcb565b500190565b600082610c6857610c68610de1565b500490565b80825b6001808611610c7f5750610caa565b818704821115610c9157610c91610dcb565b80861615610c9e57918102915b9490941c938002610c70565b94509492505050565b600061046f6000198484600082610ccc5750600161046f565b81610cd95750600061046f565b8160018114610cef5760028114610cf957610d26565b600191505061046f565b60ff841115610d0a57610d0a610dcb565b6001841b915084821115610d2057610d20610dcb565b5061046f565b5060208310610133831016604e8410600b8410161715610d59575081810a83811115610d5457610d54610dcb565b61046f565b610d668484846001610c6d565b808604821115610d7857610d78610dcb565b02949350505050565b6000816000190483118215151615610d9b57610d9b610dcb565b500290565b600082821015610db257610db2610dcb565b500390565b600082610dc657610dc6610de1565b500690565b634e487b7160e01b600052601160045260246000fd5b634e487b7160e01b600052601260045260246000fdfe68747470733a2f2f7777772e7374726176612e636f6d2f6170692f76332f6174686c657465732f34323333373637342f73746174733f6163636573735f746f6b656e3d32623334646663353066633435346164356630626431373733613663653234326163363561343935a2646970667358221220d96768819a01d4a0711110bc9ad47489ecf90fd2bc4d07165665f5012af4ade664736f6c63430008000033",
          "opcodes": "PUSH1 0x80 PUSH1 0x40 MSTORE PUSH1 0x1 PUSH1 0x4 SSTORE CALLVALUE DUP1 ISZERO PUSH2 0x15 JUMPI PUSH1 0x0 DUP1 REVERT JUMPDEST POP PUSH2 0x1E PUSH2 0x79 JUMP JUMPDEST PUSH1 0x8 DUP1 SLOAD PUSH1 0x1 PUSH1 0x1 PUSH1 0xA0 SHL SUB NOT AND PUSH20 0xC57B33452B4F7BB189BB5AFAE9CC4ABA1F7A4FD8 OR SWAP1 SSTORE PUSH32 0x6435323730643163333131393431643062303862656164323166656137373437 PUSH1 0x9 SSTORE PUSH8 0x16345785D8A0000 PUSH1 0xA SSTORE PUSH2 0x158 JUMP JUMPDEST PUSH2 0x106 PUSH20 0xC89BD4E1632D3A43CB03AAAD5262CBE4038BC571 PUSH1 0x1 PUSH1 0x1 PUSH1 0xA0 SHL SUB AND PUSH4 0x38CC4831 PUSH1 0x40 MLOAD DUP2 PUSH4 0xFFFFFFFF AND PUSH1 0xE0 SHL DUP2 MSTORE PUSH1 0x4 ADD PUSH1 0x20 PUSH1 0x40 MLOAD DUP1 DUP4 SUB DUP2 DUP7 DUP1 EXTCODESIZE ISZERO DUP1 ISZERO PUSH2 0xC9 JUMPI PUSH1 0x0 DUP1 REVERT JUMPDEST POP GAS STATICCALL ISZERO DUP1 ISZERO PUSH2 0xDD JUMPI RETURNDATASIZE PUSH1 0x0 DUP1 RETURNDATACOPY RETURNDATASIZE PUSH1 0x0 REVERT JUMPDEST POP POP POP POP PUSH1 0x40 MLOAD RETURNDATASIZE PUSH1 0x1F NOT PUSH1 0x1F DUP3 ADD AND DUP3 ADD DUP1 PUSH1 0x40 MSTORE POP DUP2 ADD SWAP1 PUSH2 0x101 SWAP2 SWAP1 PUSH2 0x12A JUMP JUMPDEST PUSH2 0x108 JUMP JUMPDEST JUMP JUMPDEST PUSH1 0x2 DUP1 SLOAD PUSH1 0x1 PUSH1 0x1 PUSH1 0xA0 SHL SUB NOT AND PUSH1 0x1 PUSH1 0x1 PUSH1 0xA0 SHL SUB SWAP3 SWAP1 SWAP3 AND SWAP2 SWAP1 SWAP2 OR SWAP1 SSTORE JUMP JUMPDEST PUSH1 0x0 PUSH1 0x20 DUP3 DUP5 SUB SLT ISZERO PUSH2 0x13B JUMPI DUP1 DUP2 REVERT JUMPDEST DUP2 MLOAD PUSH1 0x1 PUSH1 0x1 PUSH1 0xA0 SHL SUB DUP2 AND DUP2 EQ PUSH2 0x151 JUMPI DUP2 DUP3 REVERT JUMPDEST SWAP4 SWAP3 POP POP POP JUMP JUMPDEST PUSH2 0xE98 DUP1 PUSH2 0x167 PUSH1 0x0 CODECOPY PUSH1 0x0 RETURN INVALID PUSH1 0x80 PUSH1 0x40 MSTORE CALLVALUE DUP1 ISZERO PUSH2 0x10 JUMPI PUSH1 0x0 DUP1 REVERT JUMPDEST POP PUSH1 0x4 CALLDATASIZE LT PUSH2 0xB4 JUMPI PUSH1 0x0 CALLDATALOAD PUSH1 0xE0 SHR DUP1 PUSH4 0x53ACAB2E GT PUSH2 0x71 JUMPI DUP1 PUSH4 0x53ACAB2E EQ PUSH2 0x10C JUMPI DUP1 PUSH4 0x557ED1BA EQ PUSH2 0x114 JUMPI DUP1 PUSH4 0xBBDF8451 EQ PUSH2 0x11C JUMPI DUP1 PUSH4 0xE774041D EQ PUSH2 0x12F JUMPI DUP1 PUSH4 0xE8B92F3A EQ PUSH2 0x137 JUMPI DUP1 PUSH4 0xEB362F1B EQ PUSH2 0x13F JUMPI PUSH2 0xB4 JUMP JUMPDEST DUP1 PUSH4 0xE0E5F78 EQ PUSH2 0xB9 JUMPI DUP1 PUSH4 0x11BA9E49 EQ PUSH2 0xC3 JUMPI DUP1 PUSH4 0x16ADA547 EQ PUSH2 0xD6 JUMPI DUP1 PUSH4 0x18F021D2 EQ PUSH2 0xF4 JUMPI DUP1 PUSH4 0x274FA2B0 EQ PUSH2 0xFC JUMPI DUP1 PUSH4 0x4851375C EQ PUSH2 0x104 JUMPI JUMPDEST PUSH1 0x0 DUP1 REVERT JUMPDEST PUSH2 0xC1 PUSH2 0x147 JUMP JUMPDEST STOP JUMPDEST PUSH2 0xC1 PUSH2 0xD1 CALLDATASIZE PUSH1 0x4 PUSH2 0xA87 JUMP JUMPDEST PUSH2 0x15B JUMP JUMPDEST PUSH2 0xDE PUSH2 0x1E6 JUMP JUMPDEST PUSH1 0x40 MLOAD PUSH2 0xEB SWAP2 SWAP1 PUSH2 0xBAD JUMP JUMPDEST PUSH1 0x40 MLOAD DUP1 SWAP2 SUB SWAP1 RETURN JUMPDEST PUSH2 0xDE PUSH2 0x1EC JUMP JUMPDEST PUSH2 0xDE PUSH2 0x1F2 JUMP JUMPDEST PUSH2 0xDE PUSH2 0x1F8 JUMP JUMPDEST PUSH2 0xDE PUSH2 0x1FE JUMP JUMPDEST PUSH2 0xDE PUSH2 0x2DE JUMP JUMPDEST PUSH2 0xC1 PUSH2 0x12A CALLDATASIZE PUSH1 0x4 PUSH2 0xA87 JUMP JUMPDEST PUSH2 0x2E4 JUMP JUMPDEST PUSH2 0xC1 PUSH2 0x366 JUMP JUMPDEST PUSH2 0xC1 PUSH2 0x37B JUMP JUMPDEST PUSH2 0xDE PUSH2 0x390 JUMP JUMPDEST PUSH1 0x3C PUSH1 0x7 SLOAD PUSH2 0x156 SWAP2 SWAP1 PUSH2 0xC59 JUMP JUMPDEST PUSH1 0xD SSTORE JUMP JUMPDEST PUSH1 0x0 DUP3 DUP2 MSTORE PUSH1 0x5 PUSH1 0x20 MSTORE PUSH1 0x40 SWAP1 KECCAK256 SLOAD DUP3 SWAP1 PUSH1 0x1 PUSH1 0x1 PUSH1 0xA0 SHL SUB AND CALLER EQ PUSH2 0x19C JUMPI PUSH1 0x40 MLOAD PUSH3 0x461BCD PUSH1 0xE5 SHL DUP2 MSTORE PUSH1 0x4 ADD PUSH2 0x193 SWAP1 PUSH2 0xBF9 JUMP JUMPDEST PUSH1 0x40 MLOAD DUP1 SWAP2 SUB SWAP1 REVERT JUMPDEST PUSH1 0x0 DUP2 DUP2 MSTORE PUSH1 0x5 PUSH1 0x20 MSTORE PUSH1 0x40 DUP1 DUP3 KECCAK256 DUP1 SLOAD PUSH1 0x1 PUSH1 0x1 PUSH1 0xA0 SHL SUB NOT AND SWAP1 SSTORE MLOAD DUP3 SWAP2 PUSH32 0x7CC135E0CEBB02C3480AE5D74D377283180A2601F8F644EDF7987B009316C63A SWAP2 LOG2 POP PUSH1 0x6 SSTORE POP JUMP JUMPDEST PUSH1 0x7 SLOAD DUP2 JUMP JUMPDEST PUSH1 0x6 SLOAD SWAP1 JUMP JUMPDEST PUSH1 0xB SLOAD DUP2 JUMP JUMPDEST PUSH1 0x6 SLOAD DUP2 JUMP JUMPDEST PUSH1 0x0 DUP1 PUSH2 0x215 PUSH1 0x9 SLOAD ADDRESS PUSH4 0xBBDF8451 PUSH1 0xE0 SHL PUSH2 0x44F JUMP JUMPDEST SWAP1 POP PUSH2 0x257 PUSH1 0x40 MLOAD DUP1 PUSH1 0x40 ADD PUSH1 0x40 MSTORE DUP1 PUSH1 0x3 DUP2 MSTORE PUSH1 0x20 ADD PUSH3 0x19D95D PUSH1 0xEA SHL DUP2 MSTORE POP PUSH1 0x40 MLOAD DUP1 PUSH1 0xA0 ADD PUSH1 0x40 MSTORE DUP1 PUSH1 0x6B DUP2 MSTORE PUSH1 0x20 ADD PUSH2 0xDF8 PUSH1 0x6B SWAP2 CODECOPY DUP4 SWAP2 SWAP1 PUSH2 0x476 JUMP JUMPDEST PUSH2 0x2BD PUSH1 0x40 MLOAD DUP1 PUSH1 0x40 ADD PUSH1 0x40 MSTORE DUP1 PUSH1 0x4 DUP2 MSTORE PUSH1 0x20 ADD PUSH4 0xE0C2E8D PUSH1 0xE3 SHL DUP2 MSTORE POP PUSH1 0x40 MLOAD DUP1 PUSH1 0x40 ADD PUSH1 0x40 MSTORE DUP1 PUSH1 0x1A DUP2 MSTORE PUSH1 0x20 ADD PUSH32 0x616C6C5F72756E5F746F74616C732E6D6F76696E675F74696D65000000000000 DUP2 MSTORE POP DUP4 PUSH2 0x476 SWAP1 SWAP3 SWAP2 SWAP1 PUSH4 0xFFFFFFFF AND JUMP JUMPDEST PUSH1 0x8 SLOAD PUSH1 0xA SLOAD PUSH2 0x2D8 SWAP2 PUSH1 0x1 PUSH1 0x1 PUSH1 0xA0 SHL SUB AND SWAP1 DUP4 SWAP1 PUSH2 0x499 JUMP JUMPDEST SWAP2 POP POP SWAP1 JUMP JUMPDEST PUSH1 0x7 SLOAD SWAP1 JUMP JUMPDEST PUSH1 0x0 DUP3 DUP2 MSTORE PUSH1 0x5 PUSH1 0x20 MSTORE PUSH1 0x40 SWAP1 KECCAK256 SLOAD DUP3 SWAP1 PUSH1 0x1 PUSH1 0x1 PUSH1 0xA0 SHL SUB AND CALLER EQ PUSH2 0x31C JUMPI PUSH1 0x40 MLOAD PUSH3 0x461BCD PUSH1 0xE5 SHL DUP2 MSTORE PUSH1 0x4 ADD PUSH2 0x193 SWAP1 PUSH2 0xBF9 JUMP JUMPDEST PUSH1 0x0 DUP2 DUP2 MSTORE PUSH1 0x5 PUSH1 0x20 MSTORE PUSH1 0x40 DUP1 DUP3 KECCAK256 DUP1 SLOAD PUSH1 0x1 PUSH1 0x1 PUSH1 0xA0 SHL SUB NOT AND SWAP1 SSTORE MLOAD DUP3 SWAP2 PUSH32 0x7CC135E0CEBB02C3480AE5D74D377283180A2601F8F644EDF7987B009316C63A SWAP2 LOG2 POP PUSH1 0x7 SSTORE POP JUMP JUMPDEST PUSH1 0xC SLOAD PUSH1 0xD SLOAD PUSH2 0x376 SWAP2 SWAP1 PUSH2 0xC59 JUMP JUMPDEST PUSH1 0xB SSTORE JUMP JUMPDEST PUSH2 0x649 PUSH1 0x6 SLOAD PUSH2 0x38B SWAP2 SWAP1 PUSH2 0xC59 JUMP JUMPDEST PUSH1 0xC SSTORE JUMP JUMPDEST PUSH1 0x0 DUP1 PUSH2 0x3A7 PUSH1 0x9 SLOAD ADDRESS PUSH4 0x11BA9E49 PUSH1 0xE0 SHL PUSH2 0x44F JUMP JUMPDEST SWAP1 POP PUSH2 0x3E9 PUSH1 0x40 MLOAD DUP1 PUSH1 0x40 ADD PUSH1 0x40 MSTORE DUP1 PUSH1 0x3 DUP2 MSTORE PUSH1 0x20 ADD PUSH3 0x19D95D PUSH1 0xEA SHL DUP2 MSTORE POP PUSH1 0x40 MLOAD DUP1 PUSH1 0xA0 ADD PUSH1 0x40 MSTORE DUP1 PUSH1 0x6B DUP2 MSTORE PUSH1 0x20 ADD PUSH2 0xDF8 PUSH1 0x6B SWAP2 CODECOPY DUP4 SWAP2 SWAP1 PUSH2 0x476 JUMP JUMPDEST PUSH2 0x2BD PUSH1 0x40 MLOAD DUP1 PUSH1 0x40 ADD PUSH1 0x40 MSTORE DUP1 PUSH1 0x4 DUP2 MSTORE PUSH1 0x20 ADD PUSH4 0xE0C2E8D PUSH1 0xE3 SHL DUP2 MSTORE POP PUSH1 0x40 MLOAD DUP1 PUSH1 0x40 ADD PUSH1 0x40 MSTORE DUP1 PUSH1 0x17 DUP2 MSTORE PUSH1 0x20 ADD PUSH32 0x616C6C5F72756E5F746F74616C732E64697374616E6365000000000000000000 DUP2 MSTORE POP DUP4 PUSH2 0x476 SWAP1 SWAP3 SWAP2 SWAP1 PUSH4 0xFFFFFFFF AND JUMP JUMPDEST PUSH2 0x457 PUSH2 0xA18 JUMP JUMPDEST PUSH2 0x45F PUSH2 0xA18 JUMP JUMPDEST PUSH2 0x46B DUP2 DUP7 DUP7 DUP7 PUSH2 0x4B8 JUMP JUMPDEST SWAP2 POP POP JUMPDEST SWAP4 SWAP3 POP POP POP JUMP JUMPDEST PUSH1 0x80 DUP4 ADD MLOAD PUSH2 0x485 SWAP1 DUP4 PUSH2 0x4F5 JUMP JUMPDEST PUSH1 0x80 DUP4 ADD MLOAD PUSH2 0x494 SWAP1 DUP3 PUSH2 0x4F5 JUMP JUMPDEST POP POP POP JUMP JUMPDEST PUSH1 0x0 PUSH2 0x4B0 DUP5 DUP5 DUP5 PUSH1 0x1 PUSH4 0x20214CA3 PUSH1 0xE1 SHL PUSH2 0x50C JUMP JUMPDEST SWAP5 SWAP4 POP POP POP POP JUMP JUMPDEST PUSH2 0x4C0 PUSH2 0xA18 JUMP JUMPDEST PUSH2 0x4D0 DUP6 PUSH1 0x80 ADD MLOAD PUSH2 0x100 PUSH2 0x6C7 JUMP JUMPDEST POP POP SWAP2 DUP4 MSTORE PUSH1 0x1 PUSH1 0x1 PUSH1 0xA0 SHL SUB AND PUSH1 0x20 DUP4 ADD MSTORE PUSH1 0x1 PUSH1 0x1 PUSH1 0xE0 SHL SUB NOT AND PUSH1 0x40 DUP3 ADD MSTORE SWAP1 JUMP JUMPDEST PUSH2 0x502 DUP3 PUSH1 0x3 DUP4 MLOAD PUSH2 0x725 JUMP JUMPDEST PUSH2 0x494 DUP3 DUP3 PUSH2 0x7FF JUMP JUMPDEST PUSH1 0x0 ADDRESS PUSH1 0x4 SLOAD PUSH1 0x40 MLOAD PUSH1 0x20 ADD PUSH2 0x523 SWAP3 SWAP2 SWAP1 PUSH2 0xAF3 JUMP JUMPDEST PUSH1 0x40 DUP1 MLOAD DUP1 DUP4 SUB PUSH1 0x1F NOT ADD DUP2 MSTORE SWAP2 DUP2 MSTORE DUP2 MLOAD PUSH1 0x20 SWAP3 DUP4 ADD KECCAK256 PUSH1 0x4 SLOAD PUSH1 0x60 DUP10 ADD MSTORE PUSH1 0x0 DUP2 DUP2 MSTORE PUSH1 0x5 SWAP1 SWAP4 MSTORE DUP2 DUP4 KECCAK256 DUP1 SLOAD PUSH1 0x1 PUSH1 0x1 PUSH1 0xA0 SHL SUB NOT AND PUSH1 0x1 PUSH1 0x1 PUSH1 0xA0 SHL SUB DUP12 AND OR SWAP1 SSTORE SWAP1 MLOAD SWAP1 SWAP3 POP DUP3 SWAP2 PUSH32 0xB5E6E01E79F91267DC17B4E6314D5D4D03593D2CEEE0FBB452B750BD70EA5AF9 SWAP2 LOG2 PUSH1 0x0 DUP3 PUSH1 0x0 DUP1 DUP9 PUSH1 0x0 ADD MLOAD DUP10 PUSH1 0x20 ADD MLOAD DUP11 PUSH1 0x40 ADD MLOAD DUP12 PUSH1 0x60 ADD MLOAD DUP11 DUP14 PUSH1 0x80 ADD MLOAD PUSH1 0x0 ADD MLOAD PUSH1 0x40 MLOAD PUSH1 0x24 ADD PUSH2 0x5CE SWAP9 SWAP8 SWAP7 SWAP6 SWAP5 SWAP4 SWAP3 SWAP2 SWAP1 PUSH2 0xB15 JUMP JUMPDEST PUSH1 0x40 DUP1 MLOAD PUSH1 0x1F NOT DUP2 DUP5 SUB ADD DUP2 MSTORE SWAP2 DUP2 MSTORE PUSH1 0x20 DUP3 ADD DUP1 MLOAD PUSH1 0x1 PUSH1 0x1 PUSH1 0xE0 SHL SUB AND PUSH1 0x1 PUSH1 0x1 PUSH1 0xE0 SHL SUB NOT SWAP1 SWAP5 AND SWAP4 SWAP1 SWAP4 OR SWAP1 SWAP3 MSTORE PUSH1 0x2 SLOAD SWAP2 MLOAD PUSH4 0x2000575 PUSH1 0xE5 SHL DUP2 MSTORE SWAP1 SWAP3 POP PUSH1 0x1 PUSH1 0x1 PUSH1 0xA0 SHL SUB SWAP1 SWAP2 AND SWAP1 PUSH4 0x4000AEA0 SWAP1 PUSH2 0x636 SWAP1 DUP11 SWAP1 DUP10 SWAP1 DUP7 SWAP1 PUSH1 0x4 ADD PUSH2 0xB7D JUMP JUMPDEST PUSH1 0x20 PUSH1 0x40 MLOAD DUP1 DUP4 SUB DUP2 PUSH1 0x0 DUP8 DUP1 EXTCODESIZE ISZERO DUP1 ISZERO PUSH2 0x650 JUMPI PUSH1 0x0 DUP1 REVERT JUMPDEST POP GAS CALL ISZERO DUP1 ISZERO PUSH2 0x664 JUMPI RETURNDATASIZE PUSH1 0x0 DUP1 RETURNDATACOPY RETURNDATASIZE PUSH1 0x0 REVERT JUMPDEST POP POP POP POP PUSH1 0x40 MLOAD RETURNDATASIZE PUSH1 0x1F NOT PUSH1 0x1F DUP3 ADD AND DUP3 ADD DUP1 PUSH1 0x40 MSTORE POP DUP2 ADD SWAP1 PUSH2 0x688 SWAP2 SWAP1 PUSH2 0xA67 JUMP JUMPDEST PUSH2 0x6A4 JUMPI PUSH1 0x40 MLOAD PUSH3 0x461BCD PUSH1 0xE5 SHL DUP2 MSTORE PUSH1 0x4 ADD PUSH2 0x193 SWAP1 PUSH2 0xBB6 JUMP JUMPDEST PUSH1 0x1 PUSH1 0x4 PUSH1 0x0 DUP3 DUP3 SLOAD PUSH2 0x6B7 SWAP2 SWAP1 PUSH2 0xC41 JUMP JUMPDEST SWAP1 SWAP2 SSTORE POP SWAP2 SWAP8 SWAP7 POP POP POP POP POP POP POP JUMP JUMPDEST PUSH2 0x6CF PUSH2 0xA4D JUMP JUMPDEST PUSH2 0x6DA PUSH1 0x20 DUP4 PUSH2 0xDB7 JUMP JUMPDEST ISZERO PUSH2 0x702 JUMPI PUSH2 0x6EA PUSH1 0x20 DUP4 PUSH2 0xDB7 JUMP JUMPDEST PUSH2 0x6F5 SWAP1 PUSH1 0x20 PUSH2 0xDA0 JUMP JUMPDEST PUSH2 0x6FF SWAP1 DUP4 PUSH2 0xC41 JUMP JUMPDEST SWAP2 POP JUMPDEST POP PUSH1 0x20 DUP1 DUP4 ADD DUP3 SWAP1 MSTORE PUSH1 0x40 DUP1 MLOAD DUP1 DUP6 MSTORE PUSH1 0x0 DUP2 MSTORE DUP4 ADD SWAP1 SWAP2 ADD SWAP1 MSTORE DUP2 JUMPDEST SWAP3 SWAP2 POP POP JUMP JUMPDEST PUSH1 0x17 DUP2 GT PUSH2 0x746 JUMPI PUSH2 0x740 DUP4 PUSH1 0xE0 PUSH1 0x5 DUP6 SWAP1 SHL AND DUP4 OR PUSH2 0x819 JUMP JUMPDEST POP PUSH2 0x494 JUMP JUMPDEST PUSH1 0xFF DUP2 GT PUSH2 0x770 JUMPI PUSH2 0x763 DUP4 PUSH1 0x18 PUSH2 0x1FE0 PUSH1 0x5 DUP7 SWAP1 SHL AND OR PUSH2 0x819 JUMP JUMPDEST POP PUSH2 0x740 DUP4 DUP3 PUSH1 0x1 PUSH2 0x831 JUMP JUMPDEST PUSH2 0xFFFF DUP2 GT PUSH2 0x79B JUMPI PUSH2 0x78E DUP4 PUSH1 0x19 PUSH2 0x1FE0 PUSH1 0x5 DUP7 SWAP1 SHL AND OR PUSH2 0x819 JUMP JUMPDEST POP PUSH2 0x740 DUP4 DUP3 PUSH1 0x2 PUSH2 0x831 JUMP JUMPDEST PUSH4 0xFFFFFFFF DUP2 GT PUSH2 0x7C8 JUMPI PUSH2 0x7BB DUP4 PUSH1 0x1A PUSH2 0x1FE0 PUSH1 0x5 DUP7 SWAP1 SHL AND OR PUSH2 0x819 JUMP JUMPDEST POP PUSH2 0x740 DUP4 DUP3 PUSH1 0x4 PUSH2 0x831 JUMP JUMPDEST PUSH8 0xFFFFFFFFFFFFFFFF DUP2 GT PUSH2 0x494 JUMPI PUSH2 0x7EC DUP4 PUSH1 0x1B PUSH2 0x1FE0 PUSH1 0x5 DUP7 SWAP1 SHL AND OR PUSH2 0x819 JUMP JUMPDEST POP PUSH2 0x7F9 DUP4 DUP3 PUSH1 0x8 PUSH2 0x831 JUMP JUMPDEST POP POP POP POP JUMP JUMPDEST PUSH2 0x807 PUSH2 0xA4D JUMP JUMPDEST PUSH2 0x46F DUP4 DUP5 PUSH1 0x0 ADD MLOAD MLOAD DUP5 DUP6 MLOAD PUSH2 0x84A JUMP JUMPDEST PUSH2 0x821 PUSH2 0xA4D JUMP JUMPDEST PUSH2 0x46F DUP4 DUP5 PUSH1 0x0 ADD MLOAD MLOAD DUP5 PUSH2 0x927 JUMP JUMPDEST PUSH2 0x839 PUSH2 0xA4D JUMP JUMPDEST PUSH2 0x4B0 DUP5 DUP6 PUSH1 0x0 ADD MLOAD MLOAD DUP6 DUP6 PUSH2 0x976 JUMP JUMPDEST PUSH2 0x852 PUSH2 0xA4D JUMP JUMPDEST DUP3 MLOAD DUP3 GT ISZERO PUSH2 0x860 JUMPI PUSH1 0x0 DUP1 REVERT JUMPDEST PUSH1 0x20 DUP6 ADD MLOAD PUSH2 0x86F DUP4 DUP7 PUSH2 0xC41 JUMP JUMPDEST GT ISZERO PUSH2 0x8A2 JUMPI PUSH2 0x8A2 DUP6 PUSH2 0x892 DUP8 PUSH1 0x20 ADD MLOAD DUP8 DUP7 PUSH2 0x88D SWAP2 SWAP1 PUSH2 0xC41 JUMP JUMPDEST PUSH2 0x9EA JUMP JUMPDEST PUSH2 0x89D SWAP1 PUSH1 0x2 PUSH2 0xD81 JUMP JUMPDEST PUSH2 0xA01 JUMP JUMPDEST PUSH1 0x0 DUP1 DUP7 MLOAD DUP1 MLOAD DUP8 PUSH1 0x20 DUP4 ADD ADD SWAP4 POP DUP1 DUP9 DUP8 ADD GT ISZERO PUSH2 0x8C1 JUMPI DUP8 DUP7 ADD DUP3 MSTORE JUMPDEST POP POP POP PUSH1 0x20 DUP5 ADD JUMPDEST PUSH1 0x20 DUP5 LT PUSH2 0x901 JUMPI DUP1 MLOAD DUP3 MSTORE PUSH2 0x8E0 PUSH1 0x20 DUP4 PUSH2 0xC41 JUMP JUMPDEST SWAP2 POP PUSH2 0x8ED PUSH1 0x20 DUP3 PUSH2 0xC41 JUMP JUMPDEST SWAP1 POP PUSH2 0x8FA PUSH1 0x20 DUP6 PUSH2 0xDA0 JUMP JUMPDEST SWAP4 POP PUSH2 0x8C9 JUMP JUMPDEST MLOAD DUP2 MLOAD PUSH1 0x0 NOT PUSH1 0x20 DUP7 SWAP1 SUB PUSH2 0x100 EXP ADD SWAP1 DUP2 AND SWAP1 NOT SWAP2 SWAP1 SWAP2 AND OR SWAP1 MSTORE POP DUP4 SWAP5 SWAP4 POP POP POP POP JUMP JUMPDEST PUSH2 0x92F PUSH2 0xA4D JUMP JUMPDEST DUP4 PUSH1 0x20 ADD MLOAD DUP4 LT PUSH2 0x94F JUMPI PUSH2 0x94F DUP5 DUP6 PUSH1 0x20 ADD MLOAD PUSH1 0x2 PUSH2 0x89D SWAP2 SWAP1 PUSH2 0xD81 JUMP JUMPDEST DUP4 MLOAD DUP1 MLOAD PUSH1 0x20 DUP6 DUP4 ADD ADD DUP5 DUP2 MSTORE8 POP DUP1 DUP6 EQ ISZERO PUSH2 0x96C JUMPI PUSH1 0x1 DUP2 ADD DUP3 MSTORE JUMPDEST POP SWAP4 SWAP5 SWAP4 POP POP POP POP JUMP JUMPDEST PUSH2 0x97E PUSH2 0xA4D JUMP JUMPDEST PUSH1 0x20 DUP6 ADD MLOAD PUSH2 0x98D DUP6 DUP5 PUSH2 0xC41 JUMP JUMPDEST GT ISZERO PUSH2 0x9A1 JUMPI PUSH2 0x9A1 DUP6 PUSH2 0x892 DUP7 DUP6 PUSH2 0xC41 JUMP JUMPDEST PUSH1 0x0 PUSH1 0x1 PUSH2 0x9B1 DUP5 PUSH2 0x100 PUSH2 0xCB3 JUMP JUMPDEST PUSH2 0x9BB SWAP2 SWAP1 PUSH2 0xDA0 JUMP JUMPDEST SWAP1 POP DUP6 MLOAD DUP4 DUP7 DUP3 ADD ADD DUP6 DUP4 NOT DUP3 MLOAD AND OR DUP2 MSTORE POP DUP1 MLOAD DUP5 DUP8 ADD GT ISZERO PUSH2 0x9DF JUMPI DUP4 DUP7 ADD DUP2 MSTORE JUMPDEST POP SWAP5 SWAP6 SWAP5 POP POP POP POP POP JUMP JUMPDEST PUSH1 0x0 DUP2 DUP4 GT ISZERO PUSH2 0x9FB JUMPI POP DUP2 PUSH2 0x71F JUMP JUMPDEST POP SWAP2 SWAP1 POP JUMP JUMPDEST DUP2 MLOAD PUSH2 0xA0D DUP4 DUP4 PUSH2 0x6C7 JUMP JUMPDEST POP PUSH2 0x7F9 DUP4 DUP3 PUSH2 0x7FF JUMP JUMPDEST PUSH1 0x40 DUP1 MLOAD PUSH1 0xA0 DUP2 ADD DUP3 MSTORE PUSH1 0x0 DUP1 DUP3 MSTORE PUSH1 0x20 DUP3 ADD DUP2 SWAP1 MSTORE SWAP2 DUP2 ADD DUP3 SWAP1 MSTORE PUSH1 0x60 DUP2 ADD SWAP2 SWAP1 SWAP2 MSTORE PUSH1 0x80 DUP2 ADD PUSH2 0xA48 PUSH2 0xA4D JUMP JUMPDEST SWAP1 MSTORE SWAP1 JUMP JUMPDEST PUSH1 0x40 MLOAD DUP1 PUSH1 0x40 ADD PUSH1 0x40 MSTORE DUP1 PUSH1 0x60 DUP2 MSTORE PUSH1 0x20 ADD PUSH1 0x0 DUP2 MSTORE POP SWAP1 JUMP JUMPDEST PUSH1 0x0 PUSH1 0x20 DUP3 DUP5 SUB SLT ISZERO PUSH2 0xA78 JUMPI DUP1 DUP2 REVERT JUMPDEST DUP2 MLOAD DUP1 ISZERO ISZERO DUP2 EQ PUSH2 0x46F JUMPI DUP2 DUP3 REVERT JUMPDEST PUSH1 0x0 DUP1 PUSH1 0x40 DUP4 DUP6 SUB SLT ISZERO PUSH2 0xA99 JUMPI DUP1 DUP2 REVERT JUMPDEST POP POP DUP1 CALLDATALOAD SWAP3 PUSH1 0x20 SWAP1 SWAP2 ADD CALLDATALOAD SWAP2 POP JUMP JUMPDEST PUSH1 0x0 DUP2 MLOAD DUP1 DUP5 MSTORE DUP2 JUMPDEST DUP2 DUP2 LT ISZERO PUSH2 0xACD JUMPI PUSH1 0x20 DUP2 DUP6 ADD DUP2 ADD MLOAD DUP7 DUP4 ADD DUP3 ADD MSTORE ADD PUSH2 0xAB1 JUMP JUMPDEST DUP2 DUP2 GT ISZERO PUSH2 0xADE JUMPI DUP3 PUSH1 0x20 DUP4 DUP8 ADD ADD MSTORE JUMPDEST POP PUSH1 0x1F ADD PUSH1 0x1F NOT AND SWAP3 SWAP1 SWAP3 ADD PUSH1 0x20 ADD SWAP3 SWAP2 POP POP JUMP JUMPDEST PUSH1 0x60 SWAP3 SWAP1 SWAP3 SHL PUSH12 0xFFFFFFFFFFFFFFFFFFFFFFFF NOT AND DUP3 MSTORE PUSH1 0x14 DUP3 ADD MSTORE PUSH1 0x34 ADD SWAP1 JUMP JUMPDEST PUSH1 0x1 PUSH1 0x1 PUSH1 0xA0 SHL SUB DUP10 DUP2 AND DUP3 MSTORE PUSH1 0x20 DUP3 ADD DUP10 SWAP1 MSTORE PUSH1 0x40 DUP3 ADD DUP9 SWAP1 MSTORE DUP7 AND PUSH1 0x60 DUP3 ADD MSTORE PUSH1 0x1 PUSH1 0x1 PUSH1 0xE0 SHL SUB NOT DUP6 AND PUSH1 0x80 DUP3 ADD MSTORE PUSH1 0xA0 DUP2 ADD DUP5 SWAP1 MSTORE PUSH1 0xC0 DUP2 ADD DUP4 SWAP1 MSTORE PUSH2 0x100 PUSH1 0xE0 DUP3 ADD DUP2 SWAP1 MSTORE PUSH1 0x0 SWAP1 PUSH2 0xB6E DUP4 DUP3 ADD DUP6 PUSH2 0xAA8 JUMP JUMPDEST SWAP12 SWAP11 POP POP POP POP POP POP POP POP POP POP POP JUMP JUMPDEST PUSH1 0x0 PUSH1 0x1 DUP1 PUSH1 0xA0 SHL SUB DUP6 AND DUP3 MSTORE DUP4 PUSH1 0x20 DUP4 ADD MSTORE PUSH1 0x60 PUSH1 0x40 DUP4 ADD MSTORE PUSH2 0xBA4 PUSH1 0x60 DUP4 ADD DUP5 PUSH2 0xAA8 JUMP JUMPDEST SWAP6 SWAP5 POP POP POP POP POP JUMP JUMPDEST SWAP1 DUP2 MSTORE PUSH1 0x20 ADD SWAP1 JUMP JUMPDEST PUSH1 0x20 DUP1 DUP3 MSTORE PUSH1 0x23 SWAP1 DUP3 ADD MSTORE PUSH32 0x756E61626C6520746F207472616E73666572416E6443616C6C20746F206F7261 PUSH1 0x40 DUP3 ADD MSTORE PUSH3 0x636C65 PUSH1 0xE8 SHL PUSH1 0x60 DUP3 ADD MSTORE PUSH1 0x80 ADD SWAP1 JUMP JUMPDEST PUSH1 0x20 DUP1 DUP3 MSTORE PUSH1 0x28 SWAP1 DUP3 ADD MSTORE PUSH32 0x536F75726365206D75737420626520746865206F7261636C65206F6620746865 PUSH1 0x40 DUP3 ADD MSTORE PUSH8 0x81C995C5D595CDD PUSH1 0xC2 SHL PUSH1 0x60 DUP3 ADD MSTORE PUSH1 0x80 ADD SWAP1 JUMP JUMPDEST PUSH1 0x0 DUP3 NOT DUP3 GT ISZERO PUSH2 0xC54 JUMPI PUSH2 0xC54 PUSH2 0xDCB JUMP JUMPDEST POP ADD SWAP1 JUMP JUMPDEST PUSH1 0x0 DUP3 PUSH2 0xC68 JUMPI PUSH2 0xC68 PUSH2 0xDE1 JUMP JUMPDEST POP DIV SWAP1 JUMP JUMPDEST DUP1 DUP3 JUMPDEST PUSH1 0x1 DUP1 DUP7 GT PUSH2 0xC7F JUMPI POP PUSH2 0xCAA JUMP JUMPDEST DUP2 DUP8 DIV DUP3 GT ISZERO PUSH2 0xC91 JUMPI PUSH2 0xC91 PUSH2 0xDCB JUMP JUMPDEST DUP1 DUP7 AND ISZERO PUSH2 0xC9E JUMPI SWAP2 DUP2 MUL SWAP2 JUMPDEST SWAP5 SWAP1 SWAP5 SHR SWAP4 DUP1 MUL PUSH2 0xC70 JUMP JUMPDEST SWAP5 POP SWAP5 SWAP3 POP POP POP JUMP JUMPDEST PUSH1 0x0 PUSH2 0x46F PUSH1 0x0 NOT DUP5 DUP5 PUSH1 0x0 DUP3 PUSH2 0xCCC JUMPI POP PUSH1 0x1 PUSH2 0x46F JUMP JUMPDEST DUP2 PUSH2 0xCD9 JUMPI POP PUSH1 0x0 PUSH2 0x46F JUMP JUMPDEST DUP2 PUSH1 0x1 DUP2 EQ PUSH2 0xCEF JUMPI PUSH1 0x2 DUP2 EQ PUSH2 0xCF9 JUMPI PUSH2 0xD26 JUMP JUMPDEST PUSH1 0x1 SWAP2 POP POP PUSH2 0x46F JUMP JUMPDEST PUSH1 0xFF DUP5 GT ISZERO PUSH2 0xD0A JUMPI PUSH2 0xD0A PUSH2 0xDCB JUMP JUMPDEST PUSH1 0x1 DUP5 SHL SWAP2 POP DUP5 DUP3 GT ISZERO PUSH2 0xD20 JUMPI PUSH2 0xD20 PUSH2 0xDCB JUMP JUMPDEST POP PUSH2 0x46F JUMP JUMPDEST POP PUSH1 0x20 DUP4 LT PUSH2 0x133 DUP4 LT AND PUSH1 0x4E DUP5 LT PUSH1 0xB DUP5 LT AND OR ISZERO PUSH2 0xD59 JUMPI POP DUP2 DUP2 EXP DUP4 DUP2 GT ISZERO PUSH2 0xD54 JUMPI PUSH2 0xD54 PUSH2 0xDCB JUMP JUMPDEST PUSH2 0x46F JUMP JUMPDEST PUSH2 0xD66 DUP5 DUP5 DUP5 PUSH1 0x1 PUSH2 0xC6D JUMP JUMPDEST DUP1 DUP7 DIV DUP3 GT ISZERO PUSH2 0xD78 JUMPI PUSH2 0xD78 PUSH2 0xDCB JUMP JUMPDEST MUL SWAP5 SWAP4 POP POP POP POP JUMP JUMPDEST PUSH1 0x0 DUP2 PUSH1 0x0 NOT DIV DUP4 GT DUP3 ISZERO ISZERO AND ISZERO PUSH2 0xD9B JUMPI PUSH2 0xD9B PUSH2 0xDCB JUMP JUMPDEST POP MUL SWAP1 JUMP JUMPDEST PUSH1 0x0 DUP3 DUP3 LT ISZERO PUSH2 0xDB2 JUMPI PUSH2 0xDB2 PUSH2 0xDCB JUMP JUMPDEST POP SUB SWAP1 JUMP JUMPDEST PUSH1 0x0 DUP3 PUSH2 0xDC6 JUMPI PUSH2 0xDC6 PUSH2 0xDE1 JUMP JUMPDEST POP MOD SWAP1 JUMP JUMPDEST PUSH4 0x4E487B71 PUSH1 0xE0 SHL PUSH1 0x0 MSTORE PUSH1 0x11 PUSH1 0x4 MSTORE PUSH1 0x24 PUSH1 0x0 REVERT JUMPDEST PUSH4 0x4E487B71 PUSH1 0xE0 SHL PUSH1 0x0 MSTORE PUSH1 0x12 PUSH1 0x4 MSTORE PUSH1 0x24 PUSH1 0x0 REVERT INVALID PUSH9 0x747470733A2F2F7777 PUSH24 0x2E7374726176612E636F6D2F6170692F76332F6174686C65 PUSH21 0x65732F34323333373637342F73746174733F616363 PUSH6 0x73735F746F6B PUSH6 0x6E3D32623334 PUSH5 0x6663353066 PUSH4 0x34353461 PUSH5 0x3566306264 BALANCE CALLDATACOPY CALLDATACOPY CALLER PUSH2 0x3663 PUSH6 0x323432616336 CALLDATALOAD PUSH2 0x3439 CALLDATALOAD LOG2 PUSH5 0x6970667358 0x22 SLT KECCAK256 0xD9 PUSH8 0x68819A01D4A07111 LT 0xBC SWAP11 0xD4 PUSH21 0x89ECF90FD2BC4D07165665F5012AF4ADE664736F6C PUSH4 0x43000800 STOP CALLER "
        },
        "methodIdentifiers": {
          "converPace()": "e774041d",
          "convertMinute()": "0e0e5f78",
          "covertMile()": "e8b92f3a",
          "distance()": "4851375c",
          "fulfillDistance(bytes32,uint256)": "11ba9e49",
          "fulfillTime(bytes32,uint256)": "bbdf8451",
          "getDistance()": "18f021d2",
          "getTime()": "557ed1ba",
          "pace()": "274fa2b0",
          "requestDistanceData()": "eb362f1b",
          "requestTimeData()": "53acab2e",
          "time()": "16ada547"
        }
      }
    }
  }
}